{
  "_format": "hh-sol-artifact-1",
  "contractName": "NFT",
  "sourceName": "contracts/Bookbears.sol",
  "abi": [
    {
      "inputs": [
        {
          "internalType": "string",
          "name": "_name",
          "type": "string"
        },
        {
          "internalType": "string",
          "name": "_symbol",
          "type": "string"
        },
        {
          "internalType": "string",
          "name": "_initBaseURI",
          "type": "string"
        },
        {
          "internalType": "string",
          "name": "_initNotRevealedUri",
          "type": "string"
        }
      ],
      "stateMutability": "nonpayable",
      "type": "constructor"
    },
    {
      "anonymous": false,
      "inputs": [
        {
          "indexed": true,
          "internalType": "address",
          "name": "owner",
          "type": "address"
        },
        {
          "indexed": true,
          "internalType": "address",
          "name": "approved",
          "type": "address"
        },
        {
          "indexed": true,
          "internalType": "uint256",
          "name": "tokenId",
          "type": "uint256"
        }
      ],
      "name": "Approval",
      "type": "event"
    },
    {
      "anonymous": false,
      "inputs": [
        {
          "indexed": true,
          "internalType": "address",
          "name": "owner",
          "type": "address"
        },
        {
          "indexed": true,
          "internalType": "address",
          "name": "operator",
          "type": "address"
        },
        {
          "indexed": false,
          "internalType": "bool",
          "name": "approved",
          "type": "bool"
        }
      ],
      "name": "ApprovalForAll",
      "type": "event"
    },
    {
      "anonymous": false,
      "inputs": [
        {
          "indexed": true,
          "internalType": "address",
          "name": "previousOwner",
          "type": "address"
        },
        {
          "indexed": true,
          "internalType": "address",
          "name": "newOwner",
          "type": "address"
        }
      ],
      "name": "OwnershipTransferred",
      "type": "event"
    },
    {
      "anonymous": false,
      "inputs": [
        {
          "indexed": true,
          "internalType": "address",
          "name": "from",
          "type": "address"
        },
        {
          "indexed": true,
          "internalType": "address",
          "name": "to",
          "type": "address"
        },
        {
          "indexed": true,
          "internalType": "uint256",
          "name": "tokenId",
          "type": "uint256"
        }
      ],
      "name": "Transfer",
      "type": "event"
    },
    {
      "inputs": [
        {
          "internalType": "address",
          "name": "to",
          "type": "address"
        },
        {
          "internalType": "uint256",
          "name": "tokenId",
          "type": "uint256"
        }
      ],
      "name": "approve",
      "outputs": [],
      "stateMutability": "nonpayable",
      "type": "function"
    },
    {
      "inputs": [
        {
          "internalType": "address",
          "name": "owner",
          "type": "address"
        }
      ],
      "name": "balanceOf",
      "outputs": [
        {
          "internalType": "uint256",
          "name": "",
          "type": "uint256"
        }
      ],
      "stateMutability": "view",
      "type": "function"
    },
    {
      "inputs": [],
      "name": "baseExtension",
      "outputs": [
        {
          "internalType": "string",
          "name": "",
          "type": "string"
        }
      ],
      "stateMutability": "view",
      "type": "function"
    },
    {
      "inputs": [],
      "name": "baseURI",
      "outputs": [
        {
          "internalType": "string",
          "name": "",
          "type": "string"
        }
      ],
      "stateMutability": "view",
      "type": "function"
    },
    {
      "inputs": [],
      "name": "cost",
      "outputs": [
        {
          "internalType": "uint256",
          "name": "",
          "type": "uint256"
        }
      ],
      "stateMutability": "view",
      "type": "function"
    },
    {
      "inputs": [
        {
          "internalType": "uint256",
          "name": "tokenId",
          "type": "uint256"
        }
      ],
      "name": "getApproved",
      "outputs": [
        {
          "internalType": "address",
          "name": "",
          "type": "address"
        }
      ],
      "stateMutability": "view",
      "type": "function"
    },
    {
      "inputs": [
        {
          "internalType": "address",
          "name": "owner",
          "type": "address"
        },
        {
          "internalType": "address",
          "name": "operator",
          "type": "address"
        }
      ],
      "name": "isApprovedForAll",
      "outputs": [
        {
          "internalType": "bool",
          "name": "",
          "type": "bool"
        }
      ],
      "stateMutability": "view",
      "type": "function"
    },
    {
      "inputs": [],
      "name": "maxMintAmount",
      "outputs": [
        {
          "internalType": "uint256",
          "name": "",
          "type": "uint256"
        }
      ],
      "stateMutability": "view",
      "type": "function"
    },
    {
      "inputs": [],
      "name": "maxSupply",
      "outputs": [
        {
          "internalType": "uint256",
          "name": "",
          "type": "uint256"
        }
      ],
      "stateMutability": "view",
      "type": "function"
    },
    {
      "inputs": [
        {
          "internalType": "address",
          "name": "_to",
          "type": "address"
        },
        {
          "internalType": "uint256",
          "name": "_mintAmount",
          "type": "uint256"
        }
      ],
      "name": "mint",
      "outputs": [],
      "stateMutability": "payable",
      "type": "function"
    },
    {
      "inputs": [],
      "name": "name",
      "outputs": [
        {
          "internalType": "string",
          "name": "",
          "type": "string"
        }
      ],
      "stateMutability": "view",
      "type": "function"
    },
    {
      "inputs": [],
      "name": "notRevealedUri",
      "outputs": [
        {
          "internalType": "string",
          "name": "",
          "type": "string"
        }
      ],
      "stateMutability": "view",
      "type": "function"
    },
    {
      "inputs": [],
      "name": "owner",
      "outputs": [
        {
          "internalType": "address",
          "name": "",
          "type": "address"
        }
      ],
      "stateMutability": "view",
      "type": "function"
    },
    {
      "inputs": [
        {
          "internalType": "uint256",
          "name": "tokenId",
          "type": "uint256"
        }
      ],
      "name": "ownerOf",
      "outputs": [
        {
          "internalType": "address",
          "name": "",
          "type": "address"
        }
      ],
      "stateMutability": "view",
      "type": "function"
    },
    {
      "inputs": [
        {
          "internalType": "bool",
          "name": "_state",
          "type": "bool"
        }
      ],
      "name": "pause",
      "outputs": [],
      "stateMutability": "nonpayable",
      "type": "function"
    },
    {
      "inputs": [],
      "name": "paused",
      "outputs": [
        {
          "internalType": "bool",
          "name": "",
          "type": "bool"
        }
      ],
      "stateMutability": "view",
      "type": "function"
    },
    {
      "inputs": [
        {
          "internalType": "address",
          "name": "_user",
          "type": "address"
        }
      ],
      "name": "removeWhitelistUser",
      "outputs": [],
      "stateMutability": "nonpayable",
      "type": "function"
    },
    {
      "inputs": [],
      "name": "renounceOwnership",
      "outputs": [],
      "stateMutability": "nonpayable",
      "type": "function"
    },
    {
      "inputs": [],
      "name": "reveal",
      "outputs": [],
      "stateMutability": "nonpayable",
      "type": "function"
    },
    {
      "inputs": [],
      "name": "revealed",
      "outputs": [
        {
          "internalType": "bool",
          "name": "",
          "type": "bool"
        }
      ],
      "stateMutability": "view",
      "type": "function"
    },
    {
      "inputs": [
        {
          "internalType": "address",
          "name": "from",
          "type": "address"
        },
        {
          "internalType": "address",
          "name": "to",
          "type": "address"
        },
        {
          "internalType": "uint256",
          "name": "tokenId",
          "type": "uint256"
        }
      ],
      "name": "safeTransferFrom",
      "outputs": [],
      "stateMutability": "nonpayable",
      "type": "function"
    },
    {
      "inputs": [
        {
          "internalType": "address",
          "name": "from",
          "type": "address"
        },
        {
          "internalType": "address",
          "name": "to",
          "type": "address"
        },
        {
          "internalType": "uint256",
          "name": "tokenId",
          "type": "uint256"
        },
        {
          "internalType": "bytes",
          "name": "_data",
          "type": "bytes"
        }
      ],
      "name": "safeTransferFrom",
      "outputs": [],
      "stateMutability": "nonpayable",
      "type": "function"
    },
    {
      "inputs": [
        {
          "internalType": "address",
          "name": "operator",
          "type": "address"
        },
        {
          "internalType": "bool",
          "name": "approved",
          "type": "bool"
        }
      ],
      "name": "setApprovalForAll",
      "outputs": [],
      "stateMutability": "nonpayable",
      "type": "function"
    },
    {
      "inputs": [
        {
          "internalType": "string",
          "name": "_newBaseExtension",
          "type": "string"
        }
      ],
      "name": "setBaseExtension",
      "outputs": [],
      "stateMutability": "nonpayable",
      "type": "function"
    },
    {
      "inputs": [
        {
          "internalType": "string",
          "name": "_newBaseURI",
          "type": "string"
        }
      ],
      "name": "setBaseURI",
      "outputs": [],
      "stateMutability": "nonpayable",
      "type": "function"
    },
    {
      "inputs": [
        {
          "internalType": "uint256",
          "name": "_newCost",
          "type": "uint256"
        }
      ],
      "name": "setCost",
      "outputs": [],
      "stateMutability": "nonpayable",
      "type": "function"
    },
    {
      "inputs": [
        {
          "internalType": "string",
          "name": "_notRevealedURI",
          "type": "string"
        }
      ],
      "name": "setNotRevealedURI",
      "outputs": [],
      "stateMutability": "nonpayable",
      "type": "function"
    },
    {
      "inputs": [
        {
          "internalType": "uint256",
          "name": "_newmaxMintAmount",
          "type": "uint256"
        }
      ],
      "name": "setmaxMintAmount",
      "outputs": [],
      "stateMutability": "nonpayable",
      "type": "function"
    },
    {
      "inputs": [
        {
          "internalType": "bytes4",
          "name": "interfaceId",
          "type": "bytes4"
        }
      ],
      "name": "supportsInterface",
      "outputs": [
        {
          "internalType": "bool",
          "name": "",
          "type": "bool"
        }
      ],
      "stateMutability": "view",
      "type": "function"
    },
    {
      "inputs": [],
      "name": "symbol",
      "outputs": [
        {
          "internalType": "string",
          "name": "",
          "type": "string"
        }
      ],
      "stateMutability": "view",
      "type": "function"
    },
    {
      "inputs": [
        {
          "internalType": "uint256",
          "name": "index",
          "type": "uint256"
        }
      ],
      "name": "tokenByIndex",
      "outputs": [
        {
          "internalType": "uint256",
          "name": "",
          "type": "uint256"
        }
      ],
      "stateMutability": "view",
      "type": "function"
    },
    {
      "inputs": [
        {
          "internalType": "address",
          "name": "owner",
          "type": "address"
        },
        {
          "internalType": "uint256",
          "name": "index",
          "type": "uint256"
        }
      ],
      "name": "tokenOfOwnerByIndex",
      "outputs": [
        {
          "internalType": "uint256",
          "name": "",
          "type": "uint256"
        }
      ],
      "stateMutability": "view",
      "type": "function"
    },
    {
      "inputs": [
        {
          "internalType": "uint256",
          "name": "tokenId",
          "type": "uint256"
        }
      ],
      "name": "tokenURI",
      "outputs": [
        {
          "internalType": "string",
          "name": "",
          "type": "string"
        }
      ],
      "stateMutability": "view",
      "type": "function"
    },
    {
      "inputs": [],
      "name": "totalSupply",
      "outputs": [
        {
          "internalType": "uint256",
          "name": "",
          "type": "uint256"
        }
      ],
      "stateMutability": "view",
      "type": "function"
    },
    {
      "inputs": [
        {
          "internalType": "address",
          "name": "from",
          "type": "address"
        },
        {
          "internalType": "address",
          "name": "to",
          "type": "address"
        },
        {
          "internalType": "uint256",
          "name": "tokenId",
          "type": "uint256"
        }
      ],
      "name": "transferFrom",
      "outputs": [],
      "stateMutability": "nonpayable",
      "type": "function"
    },
    {
      "inputs": [
        {
          "internalType": "address",
          "name": "newOwner",
          "type": "address"
        }
      ],
      "name": "transferOwnership",
      "outputs": [],
      "stateMutability": "nonpayable",
      "type": "function"
    },
    {
      "inputs": [
        {
          "internalType": "address",
          "name": "_owner",
          "type": "address"
        }
      ],
      "name": "walletOfOwner",
      "outputs": [
        {
          "internalType": "uint256[]",
          "name": "",
          "type": "uint256[]"
        }
      ],
      "stateMutability": "view",
      "type": "function"
    },
    {
      "inputs": [
        {
          "internalType": "address",
          "name": "_user",
          "type": "address"
        }
      ],
      "name": "whitelistUser",
      "outputs": [],
      "stateMutability": "nonpayable",
      "type": "function"
    },
    {
      "inputs": [
        {
          "internalType": "address",
          "name": "",
          "type": "address"
        }
      ],
      "name": "whitelisted",
      "outputs": [
        {
          "internalType": "bool",
          "name": "",
          "type": "bool"
        }
      ],
      "stateMutability": "view",
      "type": "function"
    },
    {
      "inputs": [],
      "name": "withdraw",
      "outputs": [],
      "stateMutability": "payable",
      "type": "function"
    }
  ],
  "bytecode": "0x60806040526040518060400160405280600581526020017f2e6a736f6e000000000000000000000000000000000000000000000000000000815250600c90805190602001906200005192919062000fad565b5066b1a2bc2ec50000600d55612710600e556014600f556000601060006101000a81548160ff0219169083151502179055506000601060016101000a81548160ff021916908315150217905550348015620000ab57600080fd5b5060405162006198380380620061988339818101604052810190620000d1919062001112565b83838160009080519060200190620000eb92919062000fad565b5080600190805190602001906200010492919062000fad565b505050620001276200011b6200016660201b60201c565b6200016e60201b60201c565b62000138826200023460201b60201c565b6200014981620002df60201b60201c565b6200015c3360056200038a60201b60201c565b50505050620018b6565b600033905090565b6000600a60009054906101000a900473ffffffffffffffffffffffffffffffffffffffff16905081600a60006101000a81548173ffffffffffffffffffffffffffffffffffffffff021916908373ffffffffffffffffffffffffffffffffffffffff1602179055508173ffffffffffffffffffffffffffffffffffffffff168173ffffffffffffffffffffffffffffffffffffffff167f8be0079c531659141344cd1fd0a4f28419497f9722a3daafe3b4186f6b6457e060405160405180910390a35050565b620002446200016660201b60201c565b73ffffffffffffffffffffffffffffffffffffffff166200026a620004f960201b60201c565b73ffffffffffffffffffffffffffffffffffffffff1614620002c3576040517f08c379a0000000000000000000000000000000000000000000000000000000008152600401620002ba90620013e4565b60405180910390fd5b80600b9080519060200190620002db92919062000fad565b5050565b620002ef6200016660201b60201c565b73ffffffffffffffffffffffffffffffffffffffff1662000315620004f960201b60201c565b73ffffffffffffffffffffffffffffffffffffffff16146200036e576040517f08c379a00000000000000000000000000000000000000000000000000000000081526004016200036590620013e4565b60405180910390fd5b80601190805190602001906200038692919062000fad565b5050565b60006200039c6200052360201b60201c565b9050601060009054906101000a900460ff1615620003b957600080fd5b60008211620003c757600080fd5b600f54821115620003d757600080fd5b600e548282620003e8919062001492565b1115620003f457600080fd5b62000404620004f960201b60201c565b73ffffffffffffffffffffffffffffffffffffffff163373ffffffffffffffffffffffffffffffffffffffff1614620004af5760011515601260003373ffffffffffffffffffffffffffffffffffffffff1673ffffffffffffffffffffffffffffffffffffffff16815260200190815260200160002060009054906101000a900460ff16151514620004ae5781600d54620004a09190620014ef565b341015620004ad57600080fd5b5b5b6000600190505b828111620004f357620004dd848284620004d1919062001492565b6200053060201b60201c565b8080620004ea9062001697565b915050620004b6565b50505050565b6000600a60009054906101000a900473ffffffffffffffffffffffffffffffffffffffff16905090565b6000600880549050905090565b620005528282604051806020016040528060008152506200055660201b60201c565b5050565b620005688383620005c460201b60201c565b6200057d6000848484620007be60201b60201c565b620005bf576040517f08c379a0000000000000000000000000000000000000000000000000000000008152600401620005b6906200135c565b60405180910390fd5b505050565b600073ffffffffffffffffffffffffffffffffffffffff168273ffffffffffffffffffffffffffffffffffffffff16141562000637576040517f08c379a00000000000000000000000000000000000000000000000000000000081526004016200062e90620013c2565b60405180910390fd5b62000648816200097860201b60201c565b156200068b576040517f08c379a000000000000000000000000000000000000000000000000000000000815260040162000682906200137e565b60405180910390fd5b6200069f60008383620009e460201b60201c565b6001600360008473ffffffffffffffffffffffffffffffffffffffff1673ffffffffffffffffffffffffffffffffffffffff1681526020019081526020016000206000828254620006f1919062001492565b92505081905550816002600083815260200190815260200160002060006101000a81548173ffffffffffffffffffffffffffffffffffffffff021916908373ffffffffffffffffffffffffffffffffffffffff160217905550808273ffffffffffffffffffffffffffffffffffffffff16600073ffffffffffffffffffffffffffffffffffffffff167fddf252ad1be2c89b69c2b068fc378daa952ba7f163c4a11628f55a4df523b3ef60405160405180910390a4620007ba6000838362000b2b60201b60201c565b5050565b6000620007ec8473ffffffffffffffffffffffffffffffffffffffff1662000b3060201b62001f441760201c565b156200096b578373ffffffffffffffffffffffffffffffffffffffff1663150b7a026200081e6200016660201b60201c565b8786866040518563ffffffff1660e01b815260040162000842949392919062001308565b602060405180830381600087803b1580156200085d57600080fd5b505af19250505080156200089157506040513d601f19601f820116820180604052508101906200088e9190620010e6565b60015b6200091a573d8060008114620008c4576040519150601f19603f3d011682016040523d82523d6000602084013e620008c9565b606091505b5060008151141562000912576040517f08c379a000000000000000000000000000000000000000000000000000000000815260040162000909906200135c565b60405180910390fd5b805181602001fd5b63150b7a0260e01b7bffffffffffffffffffffffffffffffffffffffffffffffffffffffff1916817bffffffffffffffffffffffffffffffffffffffffffffffffffffffff19161491505062000970565b600190505b949350505050565b60008073ffffffffffffffffffffffffffffffffffffffff166002600084815260200190815260200160002060009054906101000a900473ffffffffffffffffffffffffffffffffffffffff1673ffffffffffffffffffffffffffffffffffffffff1614159050919050565b620009fc83838362000b5360201b62001f671760201c565b600073ffffffffffffffffffffffffffffffffffffffff168373ffffffffffffffffffffffffffffffffffffffff16141562000a495762000a438162000b5860201b60201c565b62000a91565b8173ffffffffffffffffffffffffffffffffffffffff168373ffffffffffffffffffffffffffffffffffffffff161462000a905762000a8f838262000ba160201b60201c565b5b5b600073ffffffffffffffffffffffffffffffffffffffff168273ffffffffffffffffffffffffffffffffffffffff16141562000ade5762000ad88162000d1e60201b60201c565b62000b26565b8273ffffffffffffffffffffffffffffffffffffffff168273ffffffffffffffffffffffffffffffffffffffff161462000b255762000b24828262000e6660201b60201c565b5b5b505050565b505050565b6000808273ffffffffffffffffffffffffffffffffffffffff163b119050919050565b505050565b6008805490506009600083815260200190815260200160002081905550600881908060018154018082558091505060019003906000526020600020016000909190919091505550565b6000600162000bbb8462000ef260201b620016ec1760201c565b62000bc7919062001550565b905060006007600084815260200190815260200160002054905081811462000cad576000600660008673ffffffffffffffffffffffffffffffffffffffff1673ffffffffffffffffffffffffffffffffffffffff168152602001908152602001600020600084815260200190815260200160002054905080600660008773ffffffffffffffffffffffffffffffffffffffff1673ffffffffffffffffffffffffffffffffffffffff168152602001908152602001600020600084815260200190815260200160002081905550816007600083815260200190815260200160002081905550505b6007600084815260200190815260200160002060009055600660008573ffffffffffffffffffffffffffffffffffffffff1673ffffffffffffffffffffffffffffffffffffffff16815260200190815260200160002060008381526020019081526020016000206000905550505050565b6000600160088054905062000d34919062001550565b905060006009600084815260200190815260200160002054905060006008838154811062000d8b577f4e487b7100000000000000000000000000000000000000000000000000000000600052603260045260246000fd5b90600052602060002001549050806008838154811062000dd4577f4e487b7100000000000000000000000000000000000000000000000000000000600052603260045260246000fd5b90600052602060002001819055508160096000838152602001908152602001600020819055506009600085815260200190815260200160002060009055600880548062000e4a577f4e487b7100000000000000000000000000000000000000000000000000000000600052603160045260246000fd5b6001900381819060005260206000200160009055905550505050565b600062000e7e8362000ef260201b620016ec1760201c565b905081600660008573ffffffffffffffffffffffffffffffffffffffff1673ffffffffffffffffffffffffffffffffffffffff168152602001908152602001600020600083815260200190815260200160002081905550806007600084815260200190815260200160002081905550505050565b60008073ffffffffffffffffffffffffffffffffffffffff168273ffffffffffffffffffffffffffffffffffffffff16141562000f66576040517f08c379a000000000000000000000000000000000000000000000000000000000815260040162000f5d90620013a0565b60405180910390fd5b600360008373ffffffffffffffffffffffffffffffffffffffff1673ffffffffffffffffffffffffffffffffffffffff168152602001908152602001600020549050919050565b82805462000fbb906200162b565b90600052602060002090601f01602090048101928262000fdf57600085556200102b565b82601f1062000ffa57805160ff19168380011785556200102b565b828001600101855582156200102b579182015b828111156200102a5782518255916020019190600101906200100d565b5b5090506200103a91906200103e565b5090565b5b80821115620010595760008160009055506001016200103f565b5090565b6000620010746200106e846200142f565b62001406565b9050828152602081018484840111156200108d57600080fd5b6200109a848285620015f5565b509392505050565b600081519050620010b3816200189c565b92915050565b600082601f830112620010cb57600080fd5b8151620010dd8482602086016200105d565b91505092915050565b600060208284031215620010f957600080fd5b60006200110984828501620010a2565b91505092915050565b600080600080608085870312156200112957600080fd5b600085015167ffffffffffffffff8111156200114457600080fd5b6200115287828801620010b9565b945050602085015167ffffffffffffffff8111156200117057600080fd5b6200117e87828801620010b9565b935050604085015167ffffffffffffffff8111156200119c57600080fd5b620011aa87828801620010b9565b925050606085015167ffffffffffffffff811115620011c857600080fd5b620011d687828801620010b9565b91505092959194509250565b620011ed816200158b565b82525050565b6000620012008262001465565b6200120c818562001470565b93506200121e818560208601620015f5565b620012298162001772565b840191505092915050565b60006200124360328362001481565b9150620012508262001783565b604082019050919050565b60006200126a601c8362001481565b91506200127782620017d2565b602082019050919050565b600062001291602a8362001481565b91506200129e82620017fb565b604082019050919050565b6000620012b860208362001481565b9150620012c5826200184a565b602082019050919050565b6000620012df60208362001481565b9150620012ec8262001873565b602082019050919050565b6200130281620015eb565b82525050565b60006080820190506200131f6000830187620011e2565b6200132e6020830186620011e2565b6200133d6040830185620012f7565b8181036060830152620013518184620011f3565b905095945050505050565b60006020820190508181036000830152620013778162001234565b9050919050565b6000602082019050818103600083015262001399816200125b565b9050919050565b60006020820190508181036000830152620013bb8162001282565b9050919050565b60006020820190508181036000830152620013dd81620012a9565b9050919050565b60006020820190508181036000830152620013ff81620012d0565b9050919050565b60006200141262001425565b905062001420828262001661565b919050565b6000604051905090565b600067ffffffffffffffff8211156200144d576200144c62001743565b5b620014588262001772565b9050602081019050919050565b600081519050919050565b600082825260208201905092915050565b600082825260208201905092915050565b60006200149f82620015eb565b9150620014ac83620015eb565b9250827fffffffffffffffffffffffffffffffffffffffffffffffffffffffffffffffff03821115620014e457620014e3620016e5565b5b828201905092915050565b6000620014fc82620015eb565b91506200150983620015eb565b9250817fffffffffffffffffffffffffffffffffffffffffffffffffffffffffffffffff0483118215151615620015455762001544620016e5565b5b828202905092915050565b60006200155d82620015eb565b91506200156a83620015eb565b92508282101562001580576200157f620016e5565b5b828203905092915050565b60006200159882620015cb565b9050919050565b60007fffffffff0000000000000000000000000000000000000000000000000000000082169050919050565b600073ffffffffffffffffffffffffffffffffffffffff82169050919050565b6000819050919050565b60005b8381101562001615578082015181840152602081019050620015f8565b8381111562001625576000848401525b50505050565b600060028204905060018216806200164457607f821691505b602082108114156200165b576200165a62001714565b5b50919050565b6200166c8262001772565b810181811067ffffffffffffffff821117156200168e576200168d62001743565b5b80604052505050565b6000620016a482620015eb565b91507fffffffffffffffffffffffffffffffffffffffffffffffffffffffffffffffff821415620016da57620016d9620016e5565b5b600182019050919050565b7f4e487b7100000000000000000000000000000000000000000000000000000000600052601160045260246000fd5b7f4e487b7100000000000000000000000000000000000000000000000000000000600052602260045260246000fd5b7f4e487b7100000000000000000000000000000000000000000000000000000000600052604160045260246000fd5b6000601f19601f8301169050919050565b7f4552433732313a207472616e7366657220746f206e6f6e20455243373231526560008201527f63656976657220696d706c656d656e7465720000000000000000000000000000602082015250565b7f4552433732313a20746f6b656e20616c7265616479206d696e74656400000000600082015250565b7f4552433732313a2062616c616e636520717565727920666f7220746865207a6560008201527f726f206164647265737300000000000000000000000000000000000000000000602082015250565b7f4552433732313a206d696e7420746f20746865207a65726f2061646472657373600082015250565b7f4f776e61626c653a2063616c6c6572206973206e6f7420746865206f776e6572600082015250565b620018a7816200159f565b8114620018b357600080fd5b50565b6148d280620018c66000396000f3fe60806040526004361061023b5760003560e01c806355f804b31161012e578063a475b5dd116100ab578063d936547e1161006f578063d936547e14610843578063da3ef23f14610880578063e985e9c5146108a9578063f2c4ce1e146108e6578063f2fde38b1461090f5761023b565b8063a475b5dd14610770578063b88d4fde14610787578063c6682862146107b0578063c87b56dd146107db578063d5abeb01146108185761023b565b8063715018a6116100f2578063715018a6146106b15780637f00c7a6146106c85780638da5cb5b146106f157806395d89b411461071c578063a22cb465146107475761023b565b806355f804b3146105b85780635c975abb146105e15780636352211e1461060c5780636c0360eb1461064957806370a08231146106745761023b565b80632f745c59116101bc578063438b630011610180578063438b6300146104c157806344a0d68a146104fe5780634a4c560d146105275780634f6ccce714610550578063518302271461058d5761023b565b80632f745c591461040c57806330cc7ae0146104495780633ccfd60b1461047257806340c10f191461047c57806342842e0e146104985761023b565b8063095ea7b311610203578063095ea7b31461033957806313faede61461036257806318160ddd1461038d578063239c70ae146103b857806323b872dd146103e35761023b565b806301ffc9a71461024057806302329a291461027d57806306fdde03146102a6578063081812fc146102d1578063081c8c441461030e575b600080fd5b34801561024c57600080fd5b506102676004803603810190610262919061361f565b610938565b6040516102749190613c17565b60405180910390f35b34801561028957600080fd5b506102a4600480360381019061029f91906135f6565b6109b2565b005b3480156102b257600080fd5b506102bb610a4b565b6040516102c89190613c32565b60405180910390f35b3480156102dd57600080fd5b506102f860048036038101906102f391906136b2565b610add565b6040516103059190613b8e565b60405180910390f35b34801561031a57600080fd5b50610323610b62565b6040516103309190613c32565b60405180910390f35b34801561034557600080fd5b50610360600480360381019061035b91906135ba565b610bf0565b005b34801561036e57600080fd5b50610377610d08565b6040516103849190613e94565b60405180910390f35b34801561039957600080fd5b506103a2610d0e565b6040516103af9190613e94565b60405180910390f35b3480156103c457600080fd5b506103cd610d1b565b6040516103da9190613e94565b60405180910390f35b3480156103ef57600080fd5b5061040a600480360381019061040591906134b4565b610d21565b005b34801561041857600080fd5b50610433600480360381019061042e91906135ba565b610d81565b6040516104409190613e94565b60405180910390f35b34801561045557600080fd5b50610470600480360381019061046b919061344f565b610e26565b005b61047a610efd565b005b610496600480360381019061049191906135ba565b61109c565b005b3480156104a457600080fd5b506104bf60048036038101906104ba91906134b4565b6111e2565b005b3480156104cd57600080fd5b506104e860048036038101906104e3919061344f565b611202565b6040516104f59190613bf5565b60405180910390f35b34801561050a57600080fd5b50610525600480360381019061052091906136b2565b6112fc565b005b34801561053357600080fd5b5061054e6004803603810190610549919061344f565b611382565b005b34801561055c57600080fd5b50610577600480360381019061057291906136b2565b611459565b6040516105849190613e94565b60405180910390f35b34801561059957600080fd5b506105a26114f0565b6040516105af9190613c17565b60405180910390f35b3480156105c457600080fd5b506105df60048036038101906105da9190613671565b611503565b005b3480156105ed57600080fd5b506105f6611599565b6040516106039190613c17565b60405180910390f35b34801561061857600080fd5b50610633600480360381019061062e91906136b2565b6115ac565b6040516106409190613b8e565b60405180910390f35b34801561065557600080fd5b5061065e61165e565b60405161066b9190613c32565b60405180910390f35b34801561068057600080fd5b5061069b6004803603810190610696919061344f565b6116ec565b6040516106a89190613e94565b60405180910390f35b3480156106bd57600080fd5b506106c66117a4565b005b3480156106d457600080fd5b506106ef60048036038101906106ea91906136b2565b61182c565b005b3480156106fd57600080fd5b506107066118b2565b6040516107139190613b8e565b60405180910390f35b34801561072857600080fd5b506107316118dc565b60405161073e9190613c32565b60405180910390f35b34801561075357600080fd5b5061076e6004803603810190610769919061357e565b61196e565b005b34801561077c57600080fd5b50610785611984565b005b34801561079357600080fd5b506107ae60048036038101906107a99190613503565b611a1d565b005b3480156107bc57600080fd5b506107c5611a7f565b6040516107d29190613c32565b60405180910390f35b3480156107e757600080fd5b5061080260048036038101906107fd91906136b2565b611b0d565b60405161080f9190613c32565b60405180910390f35b34801561082457600080fd5b5061082d611c66565b60405161083a9190613e94565b60405180910390f35b34801561084f57600080fd5b5061086a6004803603810190610865919061344f565b611c6c565b6040516108779190613c17565b60405180910390f35b34801561088c57600080fd5b506108a760048036038101906108a29190613671565b611c8c565b005b3480156108b557600080fd5b506108d060048036038101906108cb9190613478565b611d22565b6040516108dd9190613c17565b60405180910390f35b3480156108f257600080fd5b5061090d60048036038101906109089190613671565b611db6565b005b34801561091b57600080fd5b506109366004803603810190610931919061344f565b611e4c565b005b60007f780e9d63000000000000000000000000000000000000000000000000000000007bffffffffffffffffffffffffffffffffffffffffffffffffffffffff1916827bffffffffffffffffffffffffffffffffffffffffffffffffffffffff191614806109ab57506109aa82611f6c565b5b9050919050565b6109ba61204e565b73ffffffffffffffffffffffffffffffffffffffff166109d86118b2565b73ffffffffffffffffffffffffffffffffffffffff1614610a2e576040517f08c379a0000000000000000000000000000000000000000000000000000000008152600401610a2590613df4565b60405180910390fd5b80601060006101000a81548160ff02191690831515021790555050565b606060008054610a5a9061419d565b80601f0160208091040260200160405190810160405280929190818152602001828054610a869061419d565b8015610ad35780601f10610aa857610100808354040283529160200191610ad3565b820191906000526020600020905b815481529060010190602001808311610ab657829003601f168201915b5050505050905090565b6000610ae882612056565b610b27576040517f08c379a0000000000000000000000000000000000000000000000000000000008152600401610b1e90613dd4565b60405180910390fd5b6004600083815260200190815260200160002060009054906101000a900473ffffffffffffffffffffffffffffffffffffffff169050919050565b60118054610b6f9061419d565b80601f0160208091040260200160405190810160405280929190818152602001828054610b9b9061419d565b8015610be85780601f10610bbd57610100808354040283529160200191610be8565b820191906000526020600020905b815481529060010190602001808311610bcb57829003601f168201915b505050505081565b6000610bfb826115ac565b90508073ffffffffffffffffffffffffffffffffffffffff168373ffffffffffffffffffffffffffffffffffffffff161415610c6c576040517f08c379a0000000000000000000000000000000000000000000000000000000008152600401610c6390613e34565b60405180910390fd5b8073ffffffffffffffffffffffffffffffffffffffff16610c8b61204e565b73ffffffffffffffffffffffffffffffffffffffff161480610cba5750610cb981610cb461204e565b611d22565b5b610cf9576040517f08c379a0000000000000000000000000000000000000000000000000000000008152600401610cf090613d54565b60405180910390fd5b610d0383836120c2565b505050565b600d5481565b6000600880549050905090565b600f5481565b610d32610d2c61204e565b8261217b565b610d71576040517f08c379a0000000000000000000000000000000000000000000000000000000008152600401610d6890613e54565b60405180910390fd5b610d7c838383612259565b505050565b6000610d8c836116ec565b8210610dcd576040517f08c379a0000000000000000000000000000000000000000000000000000000008152600401610dc490613c54565b60405180910390fd5b600660008473ffffffffffffffffffffffffffffffffffffffff1673ffffffffffffffffffffffffffffffffffffffff168152602001908152602001600020600083815260200190815260200160002054905092915050565b610e2e61204e565b73ffffffffffffffffffffffffffffffffffffffff16610e4c6118b2565b73ffffffffffffffffffffffffffffffffffffffff1614610ea2576040517f08c379a0000000000000000000000000000000000000000000000000000000008152600401610e9990613df4565b60405180910390fd5b6000601260008373ffffffffffffffffffffffffffffffffffffffff1673ffffffffffffffffffffffffffffffffffffffff16815260200190815260200160002060006101000a81548160ff02191690831515021790555050565b610f0561204e565b73ffffffffffffffffffffffffffffffffffffffff16610f236118b2565b73ffffffffffffffffffffffffffffffffffffffff1614610f79576040517f08c379a0000000000000000000000000000000000000000000000000000000008152600401610f7090613df4565b60405180910390fd5b600073943590a42c27d08e3744202c4ae5ed55c2de240d73ffffffffffffffffffffffffffffffffffffffff166064600547610fb59190614059565b610fbf9190614028565b604051610fcb90613b79565b60006040518083038185875af1925050503d8060008114611008576040519150601f19603f3d011682016040523d82523d6000602084013e61100d565b606091505b505090508061101b57600080fd5b60006110256118b2565b73ffffffffffffffffffffffffffffffffffffffff164760405161104890613b79565b60006040518083038185875af1925050503d8060008114611085576040519150601f19603f3d011682016040523d82523d6000602084013e61108a565b606091505b505090508061109857600080fd5b5050565b60006110a6610d0e565b9050601060009054906101000a900460ff16156110c257600080fd5b600082116110cf57600080fd5b600f548211156110de57600080fd5b600e5482826110ed9190613fd2565b11156110f857600080fd5b6111006118b2565b73ffffffffffffffffffffffffffffffffffffffff163373ffffffffffffffffffffffffffffffffffffffff16146111a65760011515601260003373ffffffffffffffffffffffffffffffffffffffff1673ffffffffffffffffffffffffffffffffffffffff16815260200190815260200160002060009054906101000a900460ff161515146111a55781600d546111989190614059565b3410156111a457600080fd5b5b5b6000600190505b8281116111dc576111c98482846111c49190613fd2565b6124c0565b80806111d490614200565b9150506111ad565b50505050565b6111fd83838360405180602001604052806000815250611a1d565b505050565b6060600061120f836116ec565b905060008167ffffffffffffffff811115611253577f4e487b7100000000000000000000000000000000000000000000000000000000600052604160045260246000fd5b6040519080825280602002602001820160405280156112815781602001602082028036833780820191505090505b50905060005b828110156112f1576112998582610d81565b8282815181106112d2577f4e487b7100000000000000000000000000000000000000000000000000000000600052603260045260246000fd5b60200260200101818152505080806112e990614200565b915050611287565b508092505050919050565b61130461204e565b73ffffffffffffffffffffffffffffffffffffffff166113226118b2565b73ffffffffffffffffffffffffffffffffffffffff1614611378576040517f08c379a000000000000000000000000000000000000000000000000000000000815260040161136f90613df4565b60405180910390fd5b80600d8190555050565b61138a61204e565b73ffffffffffffffffffffffffffffffffffffffff166113a86118b2565b73ffffffffffffffffffffffffffffffffffffffff16146113fe576040517f08c379a00000000000000000000000000000000000000000000000000000000081526004016113f590613df4565b60405180910390fd5b6001601260008373ffffffffffffffffffffffffffffffffffffffff1673ffffffffffffffffffffffffffffffffffffffff16815260200190815260200160002060006101000a81548160ff02191690831515021790555050565b6000611463610d0e565b82106114a4576040517f08c379a000000000000000000000000000000000000000000000000000000000815260040161149b90613e74565b60405180910390fd5b600882815481106114de577f4e487b7100000000000000000000000000000000000000000000000000000000600052603260045260246000fd5b90600052602060002001549050919050565b601060019054906101000a900460ff1681565b61150b61204e565b73ffffffffffffffffffffffffffffffffffffffff166115296118b2565b73ffffffffffffffffffffffffffffffffffffffff161461157f576040517f08c379a000000000000000000000000000000000000000000000000000000000815260040161157690613df4565b60405180910390fd5b80600b9080519060200190611595929190613273565b5050565b601060009054906101000a900460ff1681565b6000806002600084815260200190815260200160002060009054906101000a900473ffffffffffffffffffffffffffffffffffffffff169050600073ffffffffffffffffffffffffffffffffffffffff168173ffffffffffffffffffffffffffffffffffffffff161415611655576040517f08c379a000000000000000000000000000000000000000000000000000000000815260040161164c90613d94565b60405180910390fd5b80915050919050565b600b805461166b9061419d565b80601f01602080910402602001604051908101604052809291908181526020018280546116979061419d565b80156116e45780601f106116b9576101008083540402835291602001916116e4565b820191906000526020600020905b8154815290600101906020018083116116c757829003601f168201915b505050505081565b60008073ffffffffffffffffffffffffffffffffffffffff168273ffffffffffffffffffffffffffffffffffffffff16141561175d576040517f08c379a000000000000000000000000000000000000000000000000000000000815260040161175490613d74565b60405180910390fd5b600360008373ffffffffffffffffffffffffffffffffffffffff1673ffffffffffffffffffffffffffffffffffffffff168152602001908152602001600020549050919050565b6117ac61204e565b73ffffffffffffffffffffffffffffffffffffffff166117ca6118b2565b73ffffffffffffffffffffffffffffffffffffffff1614611820576040517f08c379a000000000000000000000000000000000000000000000000000000000815260040161181790613df4565b60405180910390fd5b61182a60006124de565b565b61183461204e565b73ffffffffffffffffffffffffffffffffffffffff166118526118b2565b73ffffffffffffffffffffffffffffffffffffffff16146118a8576040517f08c379a000000000000000000000000000000000000000000000000000000000815260040161189f90613df4565b60405180910390fd5b80600f8190555050565b6000600a60009054906101000a900473ffffffffffffffffffffffffffffffffffffffff16905090565b6060600180546118eb9061419d565b80601f01602080910402602001604051908101604052809291908181526020018280546119179061419d565b80156119645780601f1061193957610100808354040283529160200191611964565b820191906000526020600020905b81548152906001019060200180831161194757829003601f168201915b5050505050905090565b61198061197961204e565b83836125a4565b5050565b61198c61204e565b73ffffffffffffffffffffffffffffffffffffffff166119aa6118b2565b73ffffffffffffffffffffffffffffffffffffffff1614611a00576040517f08c379a00000000000000000000000000000000000000000000000000000000081526004016119f790613df4565b60405180910390fd5b6001601060016101000a81548160ff021916908315150217905550565b611a2e611a2861204e565b8361217b565b611a6d576040517f08c379a0000000000000000000000000000000000000000000000000000000008152600401611a6490613e54565b60405180910390fd5b611a7984848484612711565b50505050565b600c8054611a8c9061419d565b80601f0160208091040260200160405190810160405280929190818152602001828054611ab89061419d565b8015611b055780601f10611ada57610100808354040283529160200191611b05565b820191906000526020600020905b815481529060010190602001808311611ae857829003601f168201915b505050505081565b6060611b1882612056565b611b57576040517f08c379a0000000000000000000000000000000000000000000000000000000008152600401611b4e90613e14565b60405180910390fd5b60001515601060019054906101000a900460ff1615151415611c055760118054611b809061419d565b80601f0160208091040260200160405190810160405280929190818152602001828054611bac9061419d565b8015611bf95780601f10611bce57610100808354040283529160200191611bf9565b820191906000526020600020905b815481529060010190602001808311611bdc57829003601f168201915b50505050509050611c61565b6000611c0f61276d565b90506000815111611c2f5760405180602001604052806000815250611c5d565b80611c39846127ff565b600c604051602001611c4d93929190613b48565b6040516020818303038152906040525b9150505b919050565b600e5481565b60126020528060005260406000206000915054906101000a900460ff1681565b611c9461204e565b73ffffffffffffffffffffffffffffffffffffffff16611cb26118b2565b73ffffffffffffffffffffffffffffffffffffffff1614611d08576040517f08c379a0000000000000000000000000000000000000000000000000000000008152600401611cff90613df4565b60405180910390fd5b80600c9080519060200190611d1e929190613273565b5050565b6000600560008473ffffffffffffffffffffffffffffffffffffffff1673ffffffffffffffffffffffffffffffffffffffff16815260200190815260200160002060008373ffffffffffffffffffffffffffffffffffffffff1673ffffffffffffffffffffffffffffffffffffffff16815260200190815260200160002060009054906101000a900460ff16905092915050565b611dbe61204e565b73ffffffffffffffffffffffffffffffffffffffff16611ddc6118b2565b73ffffffffffffffffffffffffffffffffffffffff1614611e32576040517f08c379a0000000000000000000000000000000000000000000000000000000008152600401611e2990613df4565b60405180910390fd5b8060119080519060200190611e48929190613273565b5050565b611e5461204e565b73ffffffffffffffffffffffffffffffffffffffff16611e726118b2565b73ffffffffffffffffffffffffffffffffffffffff1614611ec8576040517f08c379a0000000000000000000000000000000000000000000000000000000008152600401611ebf90613df4565b60405180910390fd5b600073ffffffffffffffffffffffffffffffffffffffff168173ffffffffffffffffffffffffffffffffffffffff161415611f38576040517f08c379a0000000000000000000000000000000000000000000000000000000008152600401611f2f90613c94565b60405180910390fd5b611f41816124de565b50565b6000808273ffffffffffffffffffffffffffffffffffffffff163b119050919050565b505050565b60007f80ac58cd000000000000000000000000000000000000000000000000000000007bffffffffffffffffffffffffffffffffffffffffffffffffffffffff1916827bffffffffffffffffffffffffffffffffffffffffffffffffffffffff1916148061203757507f5b5e139f000000000000000000000000000000000000000000000000000000007bffffffffffffffffffffffffffffffffffffffffffffffffffffffff1916827bffffffffffffffffffffffffffffffffffffffffffffffffffffffff1916145b806120475750612046826129ac565b5b9050919050565b600033905090565b60008073ffffffffffffffffffffffffffffffffffffffff166002600084815260200190815260200160002060009054906101000a900473ffffffffffffffffffffffffffffffffffffffff1673ffffffffffffffffffffffffffffffffffffffff1614159050919050565b816004600083815260200190815260200160002060006101000a81548173ffffffffffffffffffffffffffffffffffffffff021916908373ffffffffffffffffffffffffffffffffffffffff160217905550808273ffffffffffffffffffffffffffffffffffffffff16612135836115ac565b73ffffffffffffffffffffffffffffffffffffffff167f8c5be1e5ebec7d5bd14f71427d1e84f3dd0314c0f7b2291e5b200ac8c7c3b92560405160405180910390a45050565b600061218682612056565b6121c5576040517f08c379a00000000000000000000000000000000000000000000000000000000081526004016121bc90613d34565b60405180910390fd5b60006121d0836115ac565b90508073ffffffffffffffffffffffffffffffffffffffff168473ffffffffffffffffffffffffffffffffffffffff16148061221257506122118185611d22565b5b8061225057508373ffffffffffffffffffffffffffffffffffffffff1661223884610add565b73ffffffffffffffffffffffffffffffffffffffff16145b91505092915050565b8273ffffffffffffffffffffffffffffffffffffffff16612279826115ac565b73ffffffffffffffffffffffffffffffffffffffff16146122cf576040517f08c379a00000000000000000000000000000000000000000000000000000000081526004016122c690613cb4565b60405180910390fd5b600073ffffffffffffffffffffffffffffffffffffffff168273ffffffffffffffffffffffffffffffffffffffff16141561233f576040517f08c379a000000000000000000000000000000000000000000000000000000000815260040161233690613cf4565b60405180910390fd5b61234a838383612a16565b6123556000826120c2565b6001600360008573ffffffffffffffffffffffffffffffffffffffff1673ffffffffffffffffffffffffffffffffffffffff16815260200190815260200160002060008282546123a591906140b3565b925050819055506001600360008473ffffffffffffffffffffffffffffffffffffffff1673ffffffffffffffffffffffffffffffffffffffff16815260200190815260200160002060008282546123fc9190613fd2565b92505081905550816002600083815260200190815260200160002060006101000a81548173ffffffffffffffffffffffffffffffffffffffff021916908373ffffffffffffffffffffffffffffffffffffffff160217905550808273ffffffffffffffffffffffffffffffffffffffff168473ffffffffffffffffffffffffffffffffffffffff167fddf252ad1be2c89b69c2b068fc378daa952ba7f163c4a11628f55a4df523b3ef60405160405180910390a46124bb838383612b2a565b505050565b6124da828260405180602001604052806000815250612b2f565b5050565b6000600a60009054906101000a900473ffffffffffffffffffffffffffffffffffffffff16905081600a60006101000a81548173ffffffffffffffffffffffffffffffffffffffff021916908373ffffffffffffffffffffffffffffffffffffffff1602179055508173ffffffffffffffffffffffffffffffffffffffff168173ffffffffffffffffffffffffffffffffffffffff167f8be0079c531659141344cd1fd0a4f28419497f9722a3daafe3b4186f6b6457e060405160405180910390a35050565b8173ffffffffffffffffffffffffffffffffffffffff168373ffffffffffffffffffffffffffffffffffffffff161415612613576040517f08c379a000000000000000000000000000000000000000000000000000000000815260040161260a90613d14565b60405180910390fd5b80600560008573ffffffffffffffffffffffffffffffffffffffff1673ffffffffffffffffffffffffffffffffffffffff16815260200190815260200160002060008473ffffffffffffffffffffffffffffffffffffffff1673ffffffffffffffffffffffffffffffffffffffff16815260200190815260200160002060006101000a81548160ff0219169083151502179055508173ffffffffffffffffffffffffffffffffffffffff168373ffffffffffffffffffffffffffffffffffffffff167f17307eab39ab6107e8899845ad3d59bd9653f200f220920489ca2b5937696c31836040516127049190613c17565b60405180910390a3505050565b61271c848484612259565b61272884848484612b8a565b612767576040517f08c379a000000000000000000000000000000000000000000000000000000000815260040161275e90613c74565b60405180910390fd5b50505050565b6060600b805461277c9061419d565b80601f01602080910402602001604051908101604052809291908181526020018280546127a89061419d565b80156127f55780601f106127ca576101008083540402835291602001916127f5565b820191906000526020600020905b8154815290600101906020018083116127d857829003601f168201915b5050505050905090565b60606000821415612847576040518060400160405280600181526020017f300000000000000000000000000000000000000000000000000000000000000081525090506129a7565b600082905060005b6000821461287957808061286290614200565b915050600a826128729190614028565b915061284f565b60008167ffffffffffffffff8111156128bb577f4e487b7100000000000000000000000000000000000000000000000000000000600052604160045260246000fd5b6040519080825280601f01601f1916602001820160405280156128ed5781602001600182028036833780820191505090505b5090505b600085146129a05760018261290691906140b3565b9150600a856129159190614249565b60306129219190613fd2565b60f81b81838151811061295d577f4e487b7100000000000000000000000000000000000000000000000000000000600052603260045260246000fd5b60200101907effffffffffffffffffffffffffffffffffffffffffffffffffffffffffffff1916908160001a905350600a856129999190614028565b94506128f1565b8093505050505b919050565b60007f01ffc9a7000000000000000000000000000000000000000000000000000000007bffffffffffffffffffffffffffffffffffffffffffffffffffffffff1916827bffffffffffffffffffffffffffffffffffffffffffffffffffffffff1916149050919050565b612a21838383611f67565b600073ffffffffffffffffffffffffffffffffffffffff168373ffffffffffffffffffffffffffffffffffffffff161415612a6457612a5f81612d21565b612aa3565b8173ffffffffffffffffffffffffffffffffffffffff168373ffffffffffffffffffffffffffffffffffffffff1614612aa257612aa18382612d6a565b5b5b600073ffffffffffffffffffffffffffffffffffffffff168273ffffffffffffffffffffffffffffffffffffffff161415612ae657612ae181612ed7565b612b25565b8273ffffffffffffffffffffffffffffffffffffffff168273ffffffffffffffffffffffffffffffffffffffff1614612b2457612b23828261301a565b5b5b505050565b505050565b612b398383613099565b612b466000848484612b8a565b612b85576040517f08c379a0000000000000000000000000000000000000000000000000000000008152600401612b7c90613c74565b60405180910390fd5b505050565b6000612bab8473ffffffffffffffffffffffffffffffffffffffff16611f44565b15612d14578373ffffffffffffffffffffffffffffffffffffffff1663150b7a02612bd461204e565b8786866040518563ffffffff1660e01b8152600401612bf69493929190613ba9565b602060405180830381600087803b158015612c1057600080fd5b505af1925050508015612c4157506040513d601f19601f82011682018060405250810190612c3e9190613648565b60015b612cc4573d8060008114612c71576040519150601f19603f3d011682016040523d82523d6000602084013e612c76565b606091505b50600081511415612cbc576040517f08c379a0000000000000000000000000000000000000000000000000000000008152600401612cb390613c74565b60405180910390fd5b805181602001fd5b63150b7a0260e01b7bffffffffffffffffffffffffffffffffffffffffffffffffffffffff1916817bffffffffffffffffffffffffffffffffffffffffffffffffffffffff191614915050612d19565b600190505b949350505050565b6008805490506009600083815260200190815260200160002081905550600881908060018154018082558091505060019003906000526020600020016000909190919091505550565b60006001612d77846116ec565b612d8191906140b3565b9050600060076000848152602001908152602001600020549050818114612e66576000600660008673ffffffffffffffffffffffffffffffffffffffff1673ffffffffffffffffffffffffffffffffffffffff168152602001908152602001600020600084815260200190815260200160002054905080600660008773ffffffffffffffffffffffffffffffffffffffff1673ffffffffffffffffffffffffffffffffffffffff168152602001908152602001600020600084815260200190815260200160002081905550816007600083815260200190815260200160002081905550505b6007600084815260200190815260200160002060009055600660008573ffffffffffffffffffffffffffffffffffffffff1673ffffffffffffffffffffffffffffffffffffffff16815260200190815260200160002060008381526020019081526020016000206000905550505050565b60006001600880549050612eeb91906140b3565b9050600060096000848152602001908152602001600020549050600060088381548110612f41577f4e487b7100000000000000000000000000000000000000000000000000000000600052603260045260246000fd5b906000526020600020015490508060088381548110612f89577f4e487b7100000000000000000000000000000000000000000000000000000000600052603260045260246000fd5b906000526020600020018190555081600960008381526020019081526020016000208190555060096000858152602001908152602001600020600090556008805480612ffe577f4e487b7100000000000000000000000000000000000000000000000000000000600052603160045260246000fd5b6001900381819060005260206000200160009055905550505050565b6000613025836116ec565b905081600660008573ffffffffffffffffffffffffffffffffffffffff1673ffffffffffffffffffffffffffffffffffffffff168152602001908152602001600020600083815260200190815260200160002081905550806007600084815260200190815260200160002081905550505050565b600073ffffffffffffffffffffffffffffffffffffffff168273ffffffffffffffffffffffffffffffffffffffff161415613109576040517f08c379a000000000000000000000000000000000000000000000000000000000815260040161310090613db4565b60405180910390fd5b61311281612056565b15613152576040517f08c379a000000000000000000000000000000000000000000000000000000000815260040161314990613cd4565b60405180910390fd5b61315e60008383612a16565b6001600360008473ffffffffffffffffffffffffffffffffffffffff1673ffffffffffffffffffffffffffffffffffffffff16815260200190815260200160002060008282546131ae9190613fd2565b92505081905550816002600083815260200190815260200160002060006101000a81548173ffffffffffffffffffffffffffffffffffffffff021916908373ffffffffffffffffffffffffffffffffffffffff160217905550808273ffffffffffffffffffffffffffffffffffffffff16600073ffffffffffffffffffffffffffffffffffffffff167fddf252ad1be2c89b69c2b068fc378daa952ba7f163c4a11628f55a4df523b3ef60405160405180910390a461326f60008383612b2a565b5050565b82805461327f9061419d565b90600052602060002090601f0160209004810192826132a157600085556132e8565b82601f106132ba57805160ff19168380011785556132e8565b828001600101855582156132e8579182015b828111156132e75782518255916020019190600101906132cc565b5b5090506132f591906132f9565b5090565b5b808211156133125760008160009055506001016132fa565b5090565b600061332961332484613ed4565b613eaf565b90508281526020810184848401111561334157600080fd5b61334c84828561415b565b509392505050565b600061336761336284613f05565b613eaf565b90508281526020810184848401111561337f57600080fd5b61338a84828561415b565b509392505050565b6000813590506133a181614840565b92915050565b6000813590506133b681614857565b92915050565b6000813590506133cb8161486e565b92915050565b6000815190506133e08161486e565b92915050565b600082601f8301126133f757600080fd5b8135613407848260208601613316565b91505092915050565b600082601f83011261342157600080fd5b8135613431848260208601613354565b91505092915050565b60008135905061344981614885565b92915050565b60006020828403121561346157600080fd5b600061346f84828501613392565b91505092915050565b6000806040838503121561348b57600080fd5b600061349985828601613392565b92505060206134aa85828601613392565b9150509250929050565b6000806000606084860312156134c957600080fd5b60006134d786828701613392565b93505060206134e886828701613392565b92505060406134f98682870161343a565b9150509250925092565b6000806000806080858703121561351957600080fd5b600061352787828801613392565b945050602061353887828801613392565b93505060406135498782880161343a565b925050606085013567ffffffffffffffff81111561356657600080fd5b613572878288016133e6565b91505092959194509250565b6000806040838503121561359157600080fd5b600061359f85828601613392565b92505060206135b0858286016133a7565b9150509250929050565b600080604083850312156135cd57600080fd5b60006135db85828601613392565b92505060206135ec8582860161343a565b9150509250929050565b60006020828403121561360857600080fd5b6000613616848285016133a7565b91505092915050565b60006020828403121561363157600080fd5b600061363f848285016133bc565b91505092915050565b60006020828403121561365a57600080fd5b6000613668848285016133d1565b91505092915050565b60006020828403121561368357600080fd5b600082013567ffffffffffffffff81111561369d57600080fd5b6136a984828501613410565b91505092915050565b6000602082840312156136c457600080fd5b60006136d28482850161343a565b91505092915050565b60006136e78383613b2a565b60208301905092915050565b6136fc816140e7565b82525050565b600061370d82613f5b565b6137178185613f89565b935061372283613f36565b8060005b8381101561375357815161373a88826136db565b975061374583613f7c565b925050600181019050613726565b5085935050505092915050565b613769816140f9565b82525050565b600061377a82613f66565b6137848185613f9a565b935061379481856020860161416a565b61379d81614336565b840191505092915050565b60006137b382613f71565b6137bd8185613fb6565b93506137cd81856020860161416a565b6137d681614336565b840191505092915050565b60006137ec82613f71565b6137f68185613fc7565b935061380681856020860161416a565b80840191505092915050565b6000815461381f8161419d565b6138298186613fc7565b94506001821660008114613844576001811461385557613888565b60ff19831686528186019350613888565b61385e85613f46565b60005b8381101561388057815481890152600182019150602081019050613861565b838801955050505b50505092915050565b600061389e602b83613fb6565b91506138a982614347565b604082019050919050565b60006138c1603283613fb6565b91506138cc82614396565b604082019050919050565b60006138e4602683613fb6565b91506138ef826143e5565b604082019050919050565b6000613907602583613fb6565b915061391282614434565b604082019050919050565b600061392a601c83613fb6565b915061393582614483565b602082019050919050565b600061394d602483613fb6565b9150613958826144ac565b604082019050919050565b6000613970601983613fb6565b915061397b826144fb565b602082019050919050565b6000613993602c83613fb6565b915061399e82614524565b604082019050919050565b60006139b6603883613fb6565b91506139c182614573565b604082019050919050565b60006139d9602a83613fb6565b91506139e4826145c2565b604082019050919050565b60006139fc602983613fb6565b9150613a0782614611565b604082019050919050565b6000613a1f602083613fb6565b9150613a2a82614660565b602082019050919050565b6000613a42602c83613fb6565b9150613a4d82614689565b604082019050919050565b6000613a65602083613fb6565b9150613a70826146d8565b602082019050919050565b6000613a88602f83613fb6565b9150613a9382614701565b604082019050919050565b6000613aab602183613fb6565b9150613ab682614750565b604082019050919050565b6000613ace600083613fab565b9150613ad98261479f565b600082019050919050565b6000613af1603183613fb6565b9150613afc826147a2565b604082019050919050565b6000613b14602c83613fb6565b9150613b1f826147f1565b604082019050919050565b613b3381614151565b82525050565b613b4281614151565b82525050565b6000613b5482866137e1565b9150613b6082856137e1565b9150613b6c8284613812565b9150819050949350505050565b6000613b8482613ac1565b9150819050919050565b6000602082019050613ba360008301846136f3565b92915050565b6000608082019050613bbe60008301876136f3565b613bcb60208301866136f3565b613bd86040830185613b39565b8181036060830152613bea818461376f565b905095945050505050565b60006020820190508181036000830152613c0f8184613702565b905092915050565b6000602082019050613c2c6000830184613760565b92915050565b60006020820190508181036000830152613c4c81846137a8565b905092915050565b60006020820190508181036000830152613c6d81613891565b9050919050565b60006020820190508181036000830152613c8d816138b4565b9050919050565b60006020820190508181036000830152613cad816138d7565b9050919050565b60006020820190508181036000830152613ccd816138fa565b9050919050565b60006020820190508181036000830152613ced8161391d565b9050919050565b60006020820190508181036000830152613d0d81613940565b9050919050565b60006020820190508181036000830152613d2d81613963565b9050919050565b60006020820190508181036000830152613d4d81613986565b9050919050565b60006020820190508181036000830152613d6d816139a9565b9050919050565b60006020820190508181036000830152613d8d816139cc565b9050919050565b60006020820190508181036000830152613dad816139ef565b9050919050565b60006020820190508181036000830152613dcd81613a12565b9050919050565b60006020820190508181036000830152613ded81613a35565b9050919050565b60006020820190508181036000830152613e0d81613a58565b9050919050565b60006020820190508181036000830152613e2d81613a7b565b9050919050565b60006020820190508181036000830152613e4d81613a9e565b9050919050565b60006020820190508181036000830152613e6d81613ae4565b9050919050565b60006020820190508181036000830152613e8d81613b07565b9050919050565b6000602082019050613ea96000830184613b39565b92915050565b6000613eb9613eca565b9050613ec582826141cf565b919050565b6000604051905090565b600067ffffffffffffffff821115613eef57613eee614307565b5b613ef882614336565b9050602081019050919050565b600067ffffffffffffffff821115613f2057613f1f614307565b5b613f2982614336565b9050602081019050919050565b6000819050602082019050919050565b60008190508160005260206000209050919050565b600081519050919050565b600081519050919050565b600081519050919050565b6000602082019050919050565b600082825260208201905092915050565b600082825260208201905092915050565b600081905092915050565b600082825260208201905092915050565b600081905092915050565b6000613fdd82614151565b9150613fe883614151565b9250827fffffffffffffffffffffffffffffffffffffffffffffffffffffffffffffffff0382111561401d5761401c61427a565b5b828201905092915050565b600061403382614151565b915061403e83614151565b92508261404e5761404d6142a9565b5b828204905092915050565b600061406482614151565b915061406f83614151565b9250817fffffffffffffffffffffffffffffffffffffffffffffffffffffffffffffffff04831182151516156140a8576140a761427a565b5b828202905092915050565b60006140be82614151565b91506140c983614151565b9250828210156140dc576140db61427a565b5b828203905092915050565b60006140f282614131565b9050919050565b60008115159050919050565b60007fffffffff0000000000000000000000000000000000000000000000000000000082169050919050565b600073ffffffffffffffffffffffffffffffffffffffff82169050919050565b6000819050919050565b82818337600083830152505050565b60005b8381101561418857808201518184015260208101905061416d565b83811115614197576000848401525b50505050565b600060028204905060018216806141b557607f821691505b602082108114156141c9576141c86142d8565b5b50919050565b6141d882614336565b810181811067ffffffffffffffff821117156141f7576141f6614307565b5b80604052505050565b600061420b82614151565b91507fffffffffffffffffffffffffffffffffffffffffffffffffffffffffffffffff82141561423e5761423d61427a565b5b600182019050919050565b600061425482614151565b915061425f83614151565b92508261426f5761426e6142a9565b5b828206905092915050565b7f4e487b7100000000000000000000000000000000000000000000000000000000600052601160045260246000fd5b7f4e487b7100000000000000000000000000000000000000000000000000000000600052601260045260246000fd5b7f4e487b7100000000000000000000000000000000000000000000000000000000600052602260045260246000fd5b7f4e487b7100000000000000000000000000000000000000000000000000000000600052604160045260246000fd5b6000601f19601f8301169050919050565b7f455243373231456e756d657261626c653a206f776e657220696e646578206f7560008201527f74206f6620626f756e6473000000000000000000000000000000000000000000602082015250565b7f4552433732313a207472616e7366657220746f206e6f6e20455243373231526560008201527f63656976657220696d706c656d656e7465720000000000000000000000000000602082015250565b7f4f776e61626c653a206e6577206f776e657220697320746865207a65726f206160008201527f6464726573730000000000000000000000000000000000000000000000000000602082015250565b7f4552433732313a207472616e736665722066726f6d20696e636f72726563742060008201527f6f776e6572000000000000000000000000000000000000000000000000000000602082015250565b7f4552433732313a20746f6b656e20616c7265616479206d696e74656400000000600082015250565b7f4552433732313a207472616e7366657220746f20746865207a65726f2061646460008201527f7265737300000000000000000000000000000000000000000000000000000000602082015250565b7f4552433732313a20617070726f766520746f2063616c6c657200000000000000600082015250565b7f4552433732313a206f70657261746f7220717565727920666f72206e6f6e657860008201527f697374656e7420746f6b656e0000000000000000000000000000000000000000602082015250565b7f4552433732313a20617070726f76652063616c6c6572206973206e6f74206f7760008201527f6e6572206e6f7220617070726f76656420666f7220616c6c0000000000000000602082015250565b7f4552433732313a2062616c616e636520717565727920666f7220746865207a6560008201527f726f206164647265737300000000000000000000000000000000000000000000602082015250565b7f4552433732313a206f776e657220717565727920666f72206e6f6e657869737460008201527f656e7420746f6b656e0000000000000000000000000000000000000000000000602082015250565b7f4552433732313a206d696e7420746f20746865207a65726f2061646472657373600082015250565b7f4552433732313a20617070726f76656420717565727920666f72206e6f6e657860008201527f697374656e7420746f6b656e0000000000000000000000000000000000000000602082015250565b7f4f776e61626c653a2063616c6c6572206973206e6f7420746865206f776e6572600082015250565b7f4552433732314d657461646174613a2055524920717565727920666f72206e6f60008201527f6e6578697374656e7420746f6b656e0000000000000000000000000000000000602082015250565b7f4552433732313a20617070726f76616c20746f2063757272656e74206f776e6560008201527f7200000000000000000000000000000000000000000000000000000000000000602082015250565b50565b7f4552433732313a207472616e736665722063616c6c6572206973206e6f74206f60008201527f776e6572206e6f7220617070726f766564000000000000000000000000000000602082015250565b7f455243373231456e756d657261626c653a20676c6f62616c20696e646578206f60008201527f7574206f6620626f756e64730000000000000000000000000000000000000000602082015250565b614849816140e7565b811461485457600080fd5b50565b614860816140f9565b811461486b57600080fd5b50565b61487781614105565b811461488257600080fd5b50565b61488e81614151565b811461489957600080fd5b5056fea2646970667358221220e77e24a2954840c49689b37d5678cc6bb90e105720a1d41eba677a93fa56fb6364736f6c63430008040033",
  "linkReferences": {},
  "deployedLinkReferences": {}
}